:020000040800F2
:10000000380700209D0100085F1D0008ED1800085A
:100010005D1D0008790600080925000800000000A1
:10002000000000000000000000000000C51D0008E6
:100030005907000800000000611D0008151E000897
:10004000B7010008B7010008B7010008B7010008B0
:10005000B7010008B7010008B7010008B7010008A0
:10006000B7010008B7010008B7010008B701000890
:10007000B7010008B7010008B7010008B701000880
:10008000C5060008B7010008B7010008B70100085D
:10009000B7010008B7010008B7010008B701000860
:1000A000B7010008B7010008B7010008B701000850
:1000B000B7010008B7010008B7010008B701000840
:1000C000B7010008B7010008B7010008B701000830
:1000D000B7010008B701000855240008B70100085F
:1000E000B7010008B7010008B7010008B701000810
:1000F000B7010008B7010008B7010008B701000800
:10010000B7010008B7010008B7010008B7010008EF
:10011000B7010008B7010008B7010008B7010008DF
:10012000B7010008D1060008B7010008B7010008B0
:10013000B7010008B7010008B7010008B7010008BF
:10014000B7010008B7010008B7010008B7010008AF
:10015000B7010008B7010008B7010008B70100089F
:10016000B7010008B7010008B7010008B70100088F
:10017000B7010008B7010008B7010008000000003F
:10018000B7010008B7010008DFF80CD000F062FAF0
:100190000048004725260008380700200648804709
:1001A00006480047FEE7FEE7FEE7FEE7FEE7FEE75C
:1001B000FEE7FEE7FEE7FEE79D1E00088901000856
:1001C0002DE9F05F0546002092469B46884606468C
:1001D000814640241BE0284641464746224600F01F
:1001E00083F953465A46C01A914110D31146184616
:1001F000224600F06AF92D1A67EB01084F462246A5
:100200000120002100F061F917EB00094E41201E8A
:10021000A4F10104DFDC484631462A464346BDE8E6
:10022000F09FD2B201E000F8012B491EFBD27047CB
:100230000022F6E710B513460A4604461946FFF7B2
:10024000F0FF204610BD2DE9FE4F804681EA0300F5
:10025000C00F0C46009021F0004123F00045B8EBA0
:100260000200A94105D24046214690461C460B4655
:10027000024623F00040104347D0270DC7F30A0081
:10028000C3F30A510290401A019040286BDAC3F37D
:10029000130040F4801B0098924620B10023D2EB5B
:1002A000030A63EB0B0B01985946C0F1400250461C
:1002B00000F00BF906460D4650465946019A00F0EB
:1002C00023F910EB08006141002487EA115284EA07
:1002D000E7731A4340D0009A62B3019A012A4FEAA9
:1002E000075215DC001B61EB02014FF0004202EAED
:1002F0000752CDE90042001C41F5801132462B46E1
:1003000000F05AF903B0BDE8F08F40462146F9E706
:10031000001B61EB0201001C41F5801300185B41DA
:100320002018A2F5001747EB030140EAD570B61973
:100330006D4111E06D084FEA360645EAC0754FEA97
:100340000752001B61EB0201001C41F580114908B6
:100350004FEA30000019514132462B4603B0BDE848
:10036000F04F00F01AB90098012240000023D0EBB2
:10037000020263EBE073009821464FEAE074B8EBA9
:10038000000061EB0401E9E783F000435BE781F0E3
:10039000004158E72DE9FE4F81EA030404F00044D0
:1003A00021F0004100944FF0000B23F0004350EA8D
:1003B00001045ED052EA03045BD0C3F30A54C1F3D4
:1003C0000A552C44A4F2F3340194A0FB0254C1F367
:1003D000130141F48011C3F3130343F4801301FBB1
:1003E000024400FB034E840A970A44EA815447EA18
:1003F0008357A4FB076802958D0A05FB07854FEA22
:10040000932C04FB0C542705029D4FEA065847EA3B
:100410001637B5EB08056EEB070C870E920E47EA10
:10042000811742EA8312A7FB0201B6EB0B0164EBD2
:1004300000042B0D43EA0C335E1844EB1C50DA46E3
:100440005146E7FB0201C5F313044FEA0B3343EABD
:1004500014534FEA0432019C43EA0603A4F10C044E
:100460000294009CCDE900B400F0A6F803B0BDE80A
:10047000F08F00200146F9E70EB540F233410291BA
:100480000021CDE900110A460B4600F095F803B0B3
:1004900000BD01F0004330B421F0004150EA0102F8
:1004A00006D00A0DA2F56072C1F31301002A02DC26
:1004B00030BC00207047440F44EAC104C100E0187A
:1004C00030BC00EBC25000F031B8202A04DB203AE7
:1004D00000FA02F1002070479140C2F1200320FA97
:1004E00003F3194390407047202A04DB203A21FA95
:1004F00002F00021704721FA02F3D040C2F120023D
:100500009140084319467047202A06DBCB17203A52
:1005100041FA02F043EAE07306E041FA02F3D04008
:10052000C2F1200291400843194670470029A8BF34
:100530007047401C490008BF20F00100704710B40C
:10054000B0FA80FC00FA0CF050EA010404BF10BCC1
:10055000704749B1CCF1200421FA04F411FA0CF1EE
:1005600018BF012121430843A3EB0C01CB1D4FEA27
:1005700000614FEA102042BF002010BC704700EB22
:10058000C35010440029A4BF10BC7047401C490050
:1005900008BF20F0010010BC704710B5141E73F1A5
:1005A000000408DA401C41F1000192185B411A4333
:1005B00001D120F0010010BD2DE9F04D92469B467F
:1005C00011B1B1FA81F202E0B0FA80F22032904625
:1005D000FFF77BFF04460F4640EA0A0041EA0B01A1
:1005E00053465A46084313D0114653EA010019D026
:1005F000C8F140025046FFF777FF05460E465046C9
:1006000059464246FFF761FF084305D0012004E048
:1006100020463946BDE8F08D0020054346EAE076E5
:100620002C4337430A986305E40AA0EB0800002234
:10063000FD0A44EA47540A3002D500200146E9E7A2
:10064000010510196941DDE9084500196941BDE856
:10065000F04DA2E7064C074D06E0E06840F00103CC
:1006600094E8070098471034AC42F6D3FFF790FDAA
:10067000282A0008482A0008FEE7000038B50E4C7A
:100680004FF4007525600025A560E560082525610B
:100690000A4C050A25706070080AA070E170100A03
:1006A00020716271180AA071E3716B4622460249FB
:1006B000034800F056F838BD7402002019000020ED
:1006C00044000020014800F073B900006C010020D4
:1006D000014800F06DB90000CC010020016818232A
:1006E000CAB2103AB2FBF3F2054B6FF30901032AC9
:1006F0009B5CC36500D9091D8165084670470000F1
:10070000082A000810B5014600208B698A6A4FF05C
:10071000C07453B1B3F5005F15D072B1012A0CD08B
:10072000022A0AD0032A09D104E01AB1012A06D00C
:10073000022A03D1C96AC90100D5012010BDC96AC6
:10074000A142FAD010BD002AF7D0012AF2D0022A25
:10075000F3D0032AF3D010BD70477047002001F09A
:1007600033BBF0B590F820500468A468012D05D083
:10077000022D03D0416A41F4802153E014F0406F10
:1007800001D1E5004BD5C4F30164022C03D9416AC1
:1007900041F4000146E00125A5401D608D684FF43D
:1007A000C0739DB1CE6835434E6845EAC6050668FC
:1007B00003EB0417F5514FF4C275076805EB0415F8
:1007C0000E697E51097D012905D009E00E88CD68AA
:1007D00045EA4655EBE701684E5946F480764E519E
:1007E0001179D2F805504FF4C67641EA0525016823
:1007F00006EB04168D511178D2F801204FF4C47520
:1008000041EA0221026805EB04155151006803EB2F
:100810000411425842F0010242500020F0BD416AEA
:1008200041F4001141620120F0BD70B5040003D015
:1008300094F8200010B104E0012070BD204600F0C3
:1008400081F82068016821F00201016000F0DAFA05
:100850000546052604E000F0D5FA401B0A2811D809
:10086000206840688007F6D42068016841F00101E3
:10087000016000F0C7FA05460BE000F0C3FA401B28
:100880000A2806D9606A40F40030606284F820606B
:10089000D2E720684068C007EFD0207E012820689A
:1008A00001683DD021F080010160607E0128206850
:1008B000016838D021F040010160A07E0128206845
:1008C000016833D021F020010160E07E012820681A
:1008D00001682ED041F010010160207F01282068BE
:1008E000016829D021F008010160607F012820689B
:1008F000016824D021F004010160D4E90201084319
:10090000D4E90412114308436168491E0843216871
:10091000C86100206062012084F82000002070BDC2
:1009200041F08001C0E741F04001C5E741F02001FE
:10093000CAE721F01001CFE741F00801D4E741F008
:100940000401D9E710B586B0044614216846FFF7C4
:100950006FFC14492068884221D1134800210268A5
:1009600042F000720260006800F0007005900E48CE
:100970001038026842F001020260006800F00100D5
:1009800005904FF4C05000900220CDE901010320F2
:100990000390092004906946044800F055F906B018
:1009A00010BD0000006400404038024000000240DA
:1009B0002DE9F84304464FF00009CDF80090634854
:1009C0004FF41651A56D0068B0FBF1F72E6894F84E
:1009D0005C10082000FA01F131420FD021680A684A
:1009E00052070BD50A6822F004020A6094F85C10E2
:1009F0008840A860606D40F00100606594F85C106C
:100A00004FF0010808FA01F0304208D02168496926
:100A1000090604D5A860606D40F00200606594F896
:100A20005C1004208840304208D02168096889079A
:100A300004D5A860606D40F00400606594F85C1017
:100A400010208840304218D021680968090714D561
:100A5000A86020680168490304D50068000308D530
:100A6000A16C07E00168C90503D4016821F0080101
:100A70000160216C09B12046884794F85C10202061
:100A80008840304231D021680968C9062DD5A86058
:100A900094F8350005282068016806D0490347D539
:100AA000006800031DD4616C1CE021F01601016098
:100AB0002068416921F080014161206C08B9A06C77
:100AC00020B12068016821F00801016094F85C10F1
:100AD0003F208840A86084F8349084F83580216DE8
:100AE0001FE0E16B09B120468847606D00282BD0DC
:100AF000606DC00714D0052084F8350020680168B7
:100B000021F0010101600098401C0090B84203D818
:100B100020680068C007F6D184F8349084F83580E6
:100B2000E16C002910D001B02046BDE8F043084731
:100B30000168C905D5D4016821F01001016084F86D
:100B4000349084F83580CCE7BDE8F88314000020A9
:100B50002DE9F041044600F055F906465CB1002548
:100B600084F83450022084F835002068016821F0B0
:100B7000010101600DE00120BDE8F08100F042F9C3
:100B8000801B052805D920206065032084F83500E6
:100B9000F2E720680068C007F0D122681168204899
:100BA0000140D4E901031843D4E903363343184321
:100BB00063691843A3691843E3691843236A184318
:100BC0000843616A042903D1D4E90B13194308438C
:100BD000106020684069666A20F0070130460E43C5
:100BE000012704280CD1A06A0643E06A40B12046E0
:100BF000FFF788FD20B14020606584F83570BAE7C2
:100C0000206846612046FFF769FD94F85C203F218B
:100C100091408160656584F835700020ACE7000084
:100C20003F8010F070B5044600F0ECF80546601CFB
:100C300002D004480078044400F0E4F8401BA042CD
:100C4000FAD370BD080000202DE9F84FDFF87CB121
:100C500000224FF001084FF0030A4FF00F090BF18B
:100C6000040E00BF0B6808FA02F42340A3426ED1C1
:100C70004D68022D01D0122D0ED1D50800EB850C48
:100C8000DCF820505607F70E09FA07F6B5430E694F
:100C9000BE402E43CCF82060066855000F790AFA52
:100CA00005FC07F0030726EA0C06AF403743076050
:100CB0004E68012E05D0022E03D0112E01D0122E27
:100CC0000ED18668CF6826EA0C06AF4037438760AE
:100CD0004668A6430C79C4F300149440344344603E
:100CE000C6688C6826EA0C06AC403443C4604C6885
:100CF000E40065D5364C256845F4804525602468B8
:100D000022F0030504F480440094324C2E19D6F8E6
:100D1000084895072F0F09FA07F5AC432E4DA84256
:100D200001D1002524E02D4DA84201D101251FE06D
:100D30002B4DA84201D102251AE02A4DA84201D12B
:100D4000032515E0284DA84202D1042510E037E024
:100D5000264DA84201D105250AE0254DA84201D122
:100D6000062505E0234DA84201D1072500E008250E
:100D7000BD402543C6F80858DBF800405D464E6884
:100D80009C43F60300D51C432C60DEF800407546FA
:100D90004E689C43B60300D51C432C600B4D0835B0
:100DA0002C684E689C43F60200D51C432C60074D0E
:100DB0000C352C684E689C43B60200D51C432C6051
:100DC000521C102AFFF44EAFBDE8F88F003C0140E2
:100DD000443802400030014000000240000402405C
:100DE00000080240000C02400010024000140240C3
:100DF00000180240001C02400AB1816170470904DA
:100E0000FBE70000014880687047000008000020F0
:100E10000248816802781144816070470800002010
:100E20000B4810B5016841F400710160016841F49C
:100E300080610160016841F480710160032000F06D
:100E40006FF8002000F006F800F024F8002010BD34
:100E5000003C024070B50D4D04464FF47A7128787D
:100E6000B1FBF0F00A490968B1FBF0F000F0E0FADC
:100E700048B9102C07D200222146501E00F030F84D
:100E800000206C6070BD012070BD000008000020D3
:100E9000140000200A4808B5016841F4804101604F
:100EA000006800F4804000900548001F016841F090
:100EB00080510160006800F08050009008BD000083
:100EC00044380240002809DB00F01F020121914054
:100ED0004009800000F1E020C0F8001170470000D8
:100EE000F0B40E4B1B680C46C3F30223C3F1070595
:100EF000042D00D90425191D072901D2002300E083
:100F0000DB1E012606FA05F1491E214099409E404C
:100F1000761E16403143F0BC01F0F7BA0CED00E04C
:100F2000064900F0070208684FF6FF03184040EA40
:100F30000220034A10430860704700000CED00E0F7
:100F40000000FA052DE9F0470E46050065D0DFF8F0
:100F50001481D8F80000F7B200F00F00B04207D2B9
:100F600088F80070D8F8000000F00F00B04254D1AB
:100F700028683D4C810712D5400703D5206840F40E
:100F8000E05020602878000703D5206840F46040D6
:100F900020602068A96820F0F000084320602878CD
:100FA000C0072DD0304968680839012812D00228BE
:100FB00013D0032811D00968890700292DDA216888
:100FC00021F0030101432160FFF71CFF814641F23C
:100FD000883A0EE009688903EFE709688901ECE7C0
:100FE000FFF710FFA0EB0901514502D90320BDE82E
:100FF000F0872068696800F00C00B0EB810FEFD13A
:10100000D8F80010404601F00F01B14207D907702F
:10101000006800F00F00B04201D00120E7E7287817
:10102000400705D52068E96820F4E05008432060B7
:101030002878000706D52068296920F4604040EA36
:10104000C100206000F036F82168084AC1F303119E
:10105000515CC840064908600020FFF7FBFE0020F5
:10106000C5E70000003C024008380240102A000892
:10107000140000200448054900680968044AC1F3C7
:101080008221515CC840704714000020083802409B
:10109000202A00080448054900680968044AC1F389
:1010A0004231515CC84070471400002008380240AB
:1010B000202A0008154810B5006810F00C021448EA
:1010C00013D04110042A0FD0082A0ED10F4C241F30
:1010D0002268236802F03F025B0207D52068C0F354
:1010E0008810A0FB010106E0084610BD2168C1F38D
:1010F0008811A1FB00010023FFF762F82168C1F30A
:101100000141491C4900B0FBF1F010BD0838024014
:101110000024F4002DE9F84F050076D02878DFF898
:10112000F8B2BE4CC00749D0DBF800105846C1F3F6
:101130008101012908D00068C0F3810002280AD18A
:10114000201D0068400206D52068800336D56868F7
:101150000028E2D032E06868B0F5803F10D0B0F5EA
:10116000A02F206810D020F480302060206820F468
:10117000802020606868A0B1FFF744FE06460CE0BE
:10118000206840F48030F4E740F480202060F7E7E6
:10119000FFF738FE801B642873D820688003F7D5DA
:1011A0000CE0FFF72FFE064605E000BFFFF72AFE22
:1011B000801B6428F0D820688003F7D42878DFF8F3
:1011C000608280074FF000093ED5DBF800105846DA
:1011D00011F00C0F09D00068C0F3810002280BD178
:1011E0008D48001F0068400206D42068800715D58E
:1011F000E868012809D111E0E868B8B10120C8F811
:101200000000FFF7FFFD064605E002E1FFF7FAFDEB
:10121000801B0228C0D820688007F7D5206829697C
:1012200020F0F80040EAC10020600DE0C8F800900E
:10123000FFF7E8FD064604E0FFF7E4FD801B022807
:101240001FD820688007F7D42878000722D5724E6F
:10125000744869696C3671B101210160FFF7D2FDF4
:10126000074604E0FFF7CEFDC01B022809D830680E
:101270008007F7D50EE0C0F80090FFF7C3FD0746E2
:1012800005E083E0FFF7BEFDC01B02287ED8306872
:101290008007F7D42878400768D5DFF87CA10027BD
:1012A0000AF1380ADAF80000C0000BD4DAF80010AE
:1012B00041F08051CAF80010DAF80000012700F070
:1012C00080500090584E3068C00510D4306840F40B
:1012D00080703060FFF796FD009005E0FFF792FD0B
:1012E0000099401A022851D83068C005F6D54A4EF8
:1012F000A868683601280FD00528306810D020F083
:1013000001003060306820F004003060A868B8B197
:10131000FFF778FD00900FE0306840F00100F4E73F
:1013200040F004003060F7E7FFF76CFD0099411AC8
:1013300041F28830814264D830688007F4D50EE0ED
:10134000FFF760FD009007E0FFF75CFD0099411A90
:1013500041F28830814254D830688007F4D42FB1EC
:10136000DAF8001021F08051CAF80010A869C0B363
:10137000DBF80010C1F3810102294AD00228484657
:1013800007D0C8F86000FFF73DFD00E039E00546F2
:101390003AE04746C8F86000FFF734FD064604E02F
:1013A000FFF730FD801B02282BD820688001F7D47E
:1013B000D5E907010843A96A1C4A490802EB014123
:1013C0006A6A41EA8211084395F82C1040EA0161EB
:1013D0001148001F016001203866FFF713FD054624
:1013E00005E014E0FFF70EFD401B022809D8206835
:1013F0008001F7D50BE000BFFFF704FD401B02287A
:1014000002D90320BDE8F88F20688001F4D40020C1
:10141000F8E70120F6E700000838024000380240F3
:1014200000004742800E4742007000400000FFFF6E
:1014300010B5401EB0F1807F01D3012010BD4FF0E8
:10144000E02460610F21601701F05FF80020A061C7
:1014500007202061002010BD70B590F83C20012AC3
:1014600019D0012400F83C4F0222427050F83C3C55
:101470005A689D6822F070060A684968324325F070
:10148000800529435A6050F83C2C9160447000213B
:101490000170084670BD022070BD10B5040003D075
:1014A00094F83D0010B107E0012010BD002084F841
:1014B0003C00204600F00CF8022084F83D00211D7D
:1014C000206800F015FD012084F83D00002010BDCB
:1014D00008B50C4A01680C48914207D1016841F0F7
:1014E00004010160006800F0040009E0074A91422D
:1014F00007D1016841F008010160006800F00800B0
:10150000009008BD0008004040380240000C004038
:1015100070B5044690F83C00012817D0012584F8E6
:101520003C50022084F83D002068826822F0770257
:1015300022F47F4282600868502830D00DDC2028D9
:101540004DD005DC98B310283BD148E0022070BD97
:10155000302844D0402834D139E0602828D0702881
:1015600006D0B0F5805F2CD0B0F5005F29D10AE03D
:10157000CB68D1E90121206800F01EFD2068816858
:1015800041F0770109E0CB68D1E90121206800F042
:1015900013FD2068816841F48041816011E0CA68D0
:1015A0004968206800F0DCFD5021206807E016E063
:1015B000CA684968206800F0E4FD6021206800F0F6
:1015C00005FD84F83D50002084F83C0070BDCA68D9
:1015D0004968206800F0C4FD40212068EFE72268D8
:1015E00001461046EBE7000010B586B00446142112
:1015F0006846FEF71DFE2368164C0021164802229D
:10160000A34210D1036843F008030360006800F0B0
:1016100008000590D0020090CDE90121CDE9031228
:1016200069460E4812E00E4CA34211D1036843F004
:1016300001030360006800F00100059003200090A2
:10164000CDE90121CDE9031269460648FFF7FCFA0E
:1016500006B010BD0008004030380240000C0240C7
:10166000000C00400000024070B5044690F83C00B9
:101670000D4601280DD0012684F83C60022084F834
:101680003D0042B1042A18D0082A2AD00C2A4DD194
:1016900039E0022070BD206800F0A0FC206881695C
:1016A00041F0080181612068816921F004018161B4
:1016B000206881692A69114311E0206800F0BEFCAE
:1016C0002068816941F4006181612068816921F4A9
:1016D00080618161206881692A6941EA0221816112
:1016E00024E0206800F0E0FC2068C16941F00801B6
:1016F000C1612068C16921F00401C1612068C1692C
:101700002A69114311E0206800F002FD2068C169D8
:1017100041F40061C1612068C16921F48061C16147
:101720002068C1692A6941EA0221C16184F83D60EB
:10173000002084F83C0070BD10B5040003D094F87C
:101740003D0010B107E0012010BD002084F83C00EE
:10175000204600F00CF8022084F83D00211D20688E
:1017600000F0C6FB012084F83D00002010BD70474A
:1017700070B5040004D094F83900002510B106E0DB
:10178000012070BD84F83850204600F023F8242052
:1017900084F839002068C16821F40051C1602046F6
:1017A00000F002FD2068016921F490410161206888
:1017B000416921F02A0141612068C16841F400516A
:1017C000C160E563202084F8390084F83A000020E5
:1017D00070BD00002DE9F04387B00646142168462D
:1017E000FEF726FD3A48394D3168002402220323D2
:1017F00007154FF480784FF40039A94230D13449AD
:1018000010310D6845F400350D60096801F40031B0
:101810000591016841F0010101600068694600F02E
:10182000010005900C208DE815000720CDE903305C
:101830002848FFF709FA294D274805F118012860C3
:101840007804C5E90104C5E903476C6181E8100328
:1018500028466C6233E07563AE6307B0BDE8F08381
:101860001F4DA942F9D11A4914310D6845F02005E0
:101870000D60096801F020010591016841F0040143
:1018800001600068694600F004000590C0208DE802
:1018900015000820CDE903301248FFF7D5F90F4DA8
:1018A0001148603505F1180128608005C5E901047B
:1018B000C5E903476C6181E8100328466C62FFF7B5
:1018C00047F90028C7D0FEF748FFC4E700440040AE
:1018D0003038024000000240886002406C01002065
:1018E000001401400008024028640240FEE70000A6
:1018F00070B5054600F064FF0F26154C0BE0281A62
:1019000090FBF6F0801C00B2632800DD632000F03D
:1019100025F800F055FFB4F91A0000F12801A9429A
:10192000EDDB0DE0401B90FBF6F0801C00B263285D
:1019300000DD6320404200B200F010F800F040FFEC
:10194000B4F91A00A0F12801A942EBDC70BD000037
:10195000EA02002040F6B830FFF7CABF064900236C
:1019600000280A6803DB5063086883637047536389
:101970000968886370470000AC00002070B5194CFE
:101980000A2060600023A0881A46194600B2FEF7BC
:1019900075FE60680028F5D1462000F015FAA068B1
:1019A00000F5A850A060B0F5005F03D3A0F5F85093
:1019B000FF38A0600B4D1035D4E9021001F164022C
:1019C00090420DD2643988420AD9286800231A4609
:1019D0000088E060B4F900101846FEF74FFEEBE710
:1019E00070BD00002400002010B50446074800F038
:1019F000ABFD81B2064801800CB10F3100E00F3918
:101A0000BDE8104088B200F015B800003400002096
:101A100040000020002310B5C82219461846FEF7E2
:101A20002DFEBDE810400520FFF7FCB840F6FF7022
:101A3000AFF300802DE9F041841C0E4E6FF01307C8
:101A4000851E0FE00C4800F07FFD80B23080A04280
:101A50004FF0000301D9142200E03A460021084665
:101A6000FEF70CFE3088A042ECD8A842EADBBDE8C5
:101A7000F081000040000020340000200F4810B525
:101A80000D4901600321416000214FF41022816063
:101A9000C0E903124FF4001242610176417681766B
:101AA000C17601774177FEF7C0FE002803D0BDE87C
:101AB0001040FEF752BE10BD0064004044000020FC
:101AC000114808B5016841F480010160016801F422
:101AD00080010091016841F400110160006800225A
:101AE00000F40010009011461020FFF7F9F91020C3
:101AF000FFF7E8F9002211463920FFF7F1F9BDE8B8
:101B000008403920FFF7DEB93038024030B587B0E1
:101B100014216846FEF78CFB1E480024016841F042
:101B200080010160016801F080010591016841F0C8
:101B300001010160016801F001010591016841F0B6
:101B400008010160016801F008010591016841F098
:101B5000040101600068104D00F0040005900022AF
:101B600020212846FFF748F9202000900120CDE9E8
:101B70000104694628460394FFF766F8C0200090E8
:101B80000648CDE9010469462846FFF75DF807B02D
:101B900030BD00003038024000000240000011104B
:101BA00010B58EB000240794089409940A940B94FD
:101BB0001C2168460C94FEF73BFB1F481D49016041
:101BC00042F2CF01C0E90114C721C0E9031480210A
:101BD0008161FFF762FC08B1FEF7BFFD4FF4805052
:101BE000079007A91448FFF793FC08B1FEF7B5FD6D
:101BF0001148FFF7A1FD08B1FEF7AFFD0B940BA94B
:101C00000D480C94FFF728FC08B1FEF7A6FD6020F4
:101C1000CDE900040220029000226946049406489F
:101C2000FFF722FD08B1FEF798FD0348FFF7DCFC43
:101C30000EB010BD000800406C00002010B58EB042
:101C400000240794089409940A940B941C21684674
:101C50000C94FEF7EDFA2248204901605321C0E9B7
:101C600001146321C0E9031480218161FFF715FC91
:101C700008B1FEF772FD4FF48050079007A918488D
:101C8000FFF746FC08B1FEF768FD1548FFF754FD65
:101C900008B1FEF762FD0B940BA911480C94FFF7F5
:101CA000DBFB08B1FEF759FD6020CDE9000402948A
:101CB000002269460A480494FFF7D6FC08B1FEF7F3
:101CC0004CFD042269460648FFF7CEFC08B1FEF73A
:101CD00044FD0348FFF788FC0EB010BD000C004027
:101CE000AC0000200D4810B50B4901600C49416063
:101CF00000214FF480628160C0E903120C22C0E928
:101D00000521C161FFF734FD002803D0BDE8104074
:101D1000FEF723BD10BD000000440040EC00002091
:101D2000A08601000C4810B50A4901604FF4E1316A
:101D30004160002181600C22C160C0E90412816110
:101D4000C161FFF715FD002803D0BDE81040FEF784
:101D500004BD10BD001401402C010020FEE77047B7
:101D60007047000030B5144B1C68656945F04005AC
:101D700065611B68DC6844F01004DC600F4B1C6874
:101D8000256825F0010525601C682568ED07F7D159
:101D90001D680B4CAC601C68E06018680161186835
:101DA00042601868016841F4802101601868016888
:101DB00041F00101016030BDEC0000206C01002009
:101DC000044400407047000010B5FEF755FB9FED3E
:101DD0000C1B53EC112BFEF7DDFA9FED0B1B53ECA4
:101DE000112BFEF730FAFEF754FB00EE100A0849FB
:101DF000BCEEC00A096810EE100A80B2486310BD3C
:101E00001CC7711CC771BC3F0000000000001440DB
:101E10006C000020FEF7FCBF30B593B0302168465F
:101E2000FEF706FA14210CA8FEF702FA194800255D
:101E3000016841F080510160006800F0805011900D
:101E40001548016841F4804101600068022400F4F3
:101E50008040119001200090000401908001CDE9A4
:101E6000064008AA0420A82182E813000B906846C7
:101E7000FFF750F90CA90F2081E831004FF4A05072
:101E80000F90E002109005210CA8FFF75BF813B04B
:101E900030BD00004038024000700040104801682A
:101EA00041F4700101600F48016841F001010160D7
:101EB0000C4A00210832116002680B4B1A40026084
:101EC000031D0A4A1A60026822F480220260054853
:101ED0000C300160024958068039086070470000E4
:101EE00088ED00E000380240FFFFF6FE10300024CD
:101EF000F0B50268254C264D264E274F274B4FF054
:101F0000804CA04209D0604507D0A84205D0B0421D
:101F100003D0B84201D0984204D122F0700E4A6832
:101F200042EA0E02A0421BD0604519D0A84217D049
:101F3000B04215D0B84213D0984211D0184DA842E3
:101F40000ED0184DA8420BD0174DA84208D0174DFF
:101F5000A84205D0164DA84202D0164DA84203D182
:101F600022F44075CA682A434D6922F080022A4350
:101F700002608A68C2620A688262A04201D0984206
:101F800001D10969016301214161F0BD00000140F7
:101F90000004004000080040000C00400004014024
:101FA000004001400044014000480140001800404A
:101FB000001C00400020004010B5846842EA032263
:101FC00024F47F440A432243826010BD826822F0D9
:101FD00070020A4342F0070181607047F0B5026A5F
:101FE00022F001020262036A42688469124E24F000
:101FF00073050C682C4323F002058B682B430D4DB1
:10200000A84201D0B04205D123F00807CB683B437A
:1020100023F00403A84201D0B04205D14D6922F457
:10202000407215438A692A4342608461496841636A
:102030000362F0BD0000014000040140F0B5026AF7
:1020400022F010020262026A436884690D6824F477
:10205000E64444EA05248D6822F0200242EA051293
:102060000F4D104EA84201D0B04206D1CF6822F0E9
:10207000800242EA071222F04002A84201D0B04298
:1020800007D14D6923F4406343EA85038D6943EA30
:10209000850343608461496881630262F0BD00008A
:1020A0000000014000040140F0B5026A22F4807291
:1020B0000262026A4368C46922F4007224F0730564
:1020C0000C68124E2C438D6842EA05220E4DA84240
:1020D00001D0B04206D1CF6822F4006242EA072262
:1020E00022F48062A84201D0B04207D14D6923F4A6
:1020F000405343EA05138D6943EA05134360C46105
:102100004968C1630262F0BD000001400004014063
:1021100030B5026A22F480520262046A4268C369DE
:102120000D6823F4E64343EA05238D6824F4005444
:1021300044EA0534084DA84202D0084DA84204D113
:102140004D6922F4804242EA85124260C3614968C7
:102150000164046230BD0000000001400004014041
:1021600010B5036A046A24F001040462846924F04F
:10217000F00444EA021423F00A020A438461026272
:1021800010BD10B5036A23F0100303628369046A6B
:1021900023F4704343EA023224F0A00343EA01111E
:1021A0008261016210BD00002DE9F0410446006823
:1021B0000169E26821F44051114301612169A0687D
:1021C000E26908436169114322680843D16849F212
:1021D0000C6399430143D16020684169A26921F4ED
:1021E000407111434161E2696425B2F5004F97489F
:1021F000974922684FF032083FD08A4201D082428C
:102200007CD1FEF747FF00EBC00101EB00106168D5
:102210008900B0FBF1F6FEF73DFF00EBC00101EBDA
:10222000001061688900B0FBF1F0B0FBF5F06FF0D1
:102230001801484306EB800108EB0110B0FBF5F0F4
:1022400000F0F006FEF726FF00EBC00101EB0010E6
:1022500061688900B0FBF1F0B0FBF5F006EB001609
:10226000FEF718FF00EBC00101EB00106168890068
:10227000B0FBF1F7FEF70EFFD2E08A4201D08242B6
:102280003DD1FEF707FF00EBC00101EB00106168D4
:102290004900B0FBF1F0B0FBF5F00601FEF7FAFEE5
:1022A00000EBC00101EB001061684900B0FBF1F7E1
:1022B000FEF7F0FE00EBC00101EB00106168490081
:1022C000B0FBF1F0B0FBF5F06FF01801484307EBFD
:1022D000800108EBC100B0FBF5F000F0F80006EB60
:1022E0004006FEF7D7FE00EBC00101EB001061686D
:1022F0004900B0FBF1F7FEF7CDFE3CE055E0FEF7FC
:10230000B9FE00EBC00101EB001061684900B0FBB1
:10231000F1F0B0FBF5F00601FEF7ACFE00EBC001FA
:1023200001EB001061684900B0FBF1F7FEF7A2FE77
:1023300000EBC00101EB001061684900B0FBF1F057
:10234000B0FBF5F06FF01801484307EB800108EB94
:10235000C100B0FBF5F000F0F80006EB4006FEF718
:1023600089FE00EBC00101EB001061684900B0FB81
:10237000F1F7FEF77FFE00EBC00101EB0010616892
:102380004900B0FBF1F0B0FBF5F06FF018014843E5
:1023900007EB800108EBC100B0FBF5F000F007008F
:1023A000216830448860BDE8F081FEF763FE00EBF1
:1023B000C00101EB001061688900B0FBF1F6FEF787
:1023C00059FE00EBC00101EB001061688900B0FB11
:1023D000F1F0B0FBF5F06FF01801484306EB800117
:1023E00008EB0110B0FBF5F000F0F006FEF742FE3E
:1023F00000EBC00101EB001061688900B0FBF1F057
:10240000B0FBF5F006EB0016FEF734FE00EBC00162
:1024100001EB001061688900B0FBF1F7FEF72AFEBE
:1024200000EBC00101EB001061688900B0FBF1F026
:10243000B0FBF5F06FF01801484307EB800108EBA3
:102440000110B0FBF5F000F00F00A9E70014014007
:1024500000100140264818B400680168890604D5B8
:1024600001684068009018BC704722490968C90695
:10247000F9D501684068204A0090106801684FF063
:1024800024030C031D49046824F00104046016D4DD
:1024900010684468C4F12404A4B24C8043601068FE
:1024A000016841F4002101601068016841F00101F8
:1024B0000160122CD7D1124901F1160015E0146801
:1024C0006068C0F1240080B2488063600D498B6A67
:1024D00023F400238B6211680A6842F001020A604B
:1024E0001228C0D1064901F13A0018BC00F0C4B965
:1024F000EC000020004400406C0100203C00002063
:102500008C02002000600240FEE70907090E002847
:1025100004DB00F1E02080F80014704700F00F00A9
:1025200000F1E02080F8141D704702E008C8121F77
:1025300008C1002AFAD170477047002001E001C1AC
:10254000121F002AFBD17047006800887047000006
:1025500000F00300024900EB800001EB40007047EF
:102560002C02002070B5054608780C46552812D17B
:102570006078502810D0512819D0522822D05328E2
:1025800009D1084600F02EF8002804D054F8020FB4
:10259000A8616068E86170BD084600F023F8002873
:1025A000F9D054F8020F28606068686070BD084672
:1025B00000F018F80028F9D054F8020FA8606068FD
:1025C000E86070BD084600F00DF80028F9D054F816
:1025D000020F28616068686170BD000000487047A4
:1025E0008C02002000221146435C491C1A44C9B2E7
:1025F00012B20929F8D9807A904201D1012070479E
:102600000020704702491622A1F1160000F0ACB973
:102610002003002010B504460846FFF799FF20600C
:1026200010BD0000FEF7FCFBFFF7F6FBFFF76EFAAC
:10263000FFF746FAFFF722FAFFF7B2FAFFF7FEFAC2
:10264000FFF750FBFFF76EFB00F00EF9FFF7DAFF24
:10265000FFF7C4FF564C012160605648FFF7DAFFD0
:1026600054480221001DFFF7D5FF2320FFF7ACFBE4
:10267000FFF7DCF9FFF76EF9DFF83C91DFF83CB1CA
:102680004FF4957A4FF000084FF4AF76012799F890
:1026900000004D4601280DD16068C07A032804D19E
:1026A000FEF75CF82878012804D16068C07A08B980
:1026B000FFF764F99BF8000001281FD16068807A59
:1026C000012803D1FFF7B2F9FFF744F96068807A77
:1026D000022807D14FF4FA60FFF7ACF94FF4FA5033
:1026E000FFF706F96068807A032807D141F2883045
:1026F000FFF7A0F943F69820FFF7FAF8606855460F
:10270000B0F9000000F19501A94202D884F80080D8
:1027100001E0217851B9B04201DD002003E010F55D
:10272000AF7F03DA0120FFF75FF927706068B0F927
:10273000020000F19501A94202D884F8018001E06D
:10274000617879B9B04201DD642004E010F5AF7F13
:1027500008DA6FF06300FFF7CBF8677002E0012042
:10276000FFF758F96068B0F904009628F7DC6FF0BD
:1027700095056068B0F90400A84206DA0020FFF76A
:1027800049F9F6E7C820FFF7E9F86068B0F90600F4
:102790009628F7DC04E000BF6FF0C700FFF7DEF813
:1027A0006068B0F90600A842BFF671AFF4E7000018
:1027B00000000020340000203D0000203C000020EC
:1027C000244818B40068C00641D523480068016851
:1027D00040680090214801680A684FF0160314030E
:1027E0001F4A0C6824F001040C6016D40468616868
:1027F000C1F1160189B2118063600268136843F465
:10280000002313600068026842F0010202600B2995
:102810001DD11449A1F1200016E001684C68C4F1F3
:102820001604A4B214804B6001680A6822F40022E6
:102830000A600068016841F0010101600B2C06D1BB
:1028400008491631A1F1360018BCFFF78BBE18BC41
:1028500070470000001401402C010020CC01002032
:10286000420000200A03002002492422A1F1240092
:10287000FFF778BAC60200202DE9F04300286ED099
:1028800000296CD00278437842EA0322C2F30A0599
:102890000D8042788378D20842EA4312C2F30A04D8
:1028A0004C808278C378920942EA8302037942EA33
:1028B0008322C2F30A038B8002794679520842EAE6
:1028C000C612C2F30A02CA8091F80AC046790027EC
:1028D000C6F30118234E4FF00109C44505D086F810
:1028E000009090F805C08F7200E0377091F80BC02F
:1028F00090F80580BCEB981F05D086F801904679CA
:10290000B609CE7200E077708679C77946EA072665
:102910008E81067A477A46EA0726CE81867AC77A7A
:1029200046EA07260E82067B8E74467BCE74867B33
:10293000C77B46EA07268E82067C407CA5F580652B
:102940000D80A4F580644C80A3F5806346EA0020E6
:102950008B80A2F58062CA80A0F580600881BDE806
:10296000F08300003C000020F0B5224B1C68656934
:1029700045F0400565611C68656945F08005656145
:102980001B68DC6844F01004DC601B4B1C68256885
:1029900025F0010525601C682568ED07F7D1174F64
:1029A000FD14BC4202D9154E4C3E04E0144EB44214
:1029B00003D9124E503E356008E0114F104E603F73
:1029C000B83EBC4201D9F56000E0B5600D4DA56090
:1029D0001C68E06018680161186842601868016846
:1029E00041F4802101601868016841F00101016033
:1029F000F0BD00002C010020CC01002058640240F2
:102A0000B8600240041401400006101600061016BB
:102A1000000000000000000001020304060708098E
:102A20000000000001020304482A00080000002002
:102A3000440000002A2500088C2A000844000020D9
:102A4000F40600003A250008000000000000000025
:102A50000100000010000000000000000024F4004D
:102A60000000000000000000000000001400000052
:102A70000000000000000000000000000000000056
:0C2A80000000000000000000000000004A
:040000050800018965
:00000001FF
